:020000040000FA
:060000000A128A110C280F
:10000800FE00030EF1000A08F2000A128A11D22932
:100018000A128A110F2883134030FD000230FE00B7
:10002800BD30FF00203084000A128A11E1220A1232
:100038008A11CA01CB01F801F901FA0183010A12F8
:100048008A117E29F600831203131F141F083F39F3
:1000580080389F00831603139F121F120C178312F8
:1000680003130C137308031D3A283B280C29831625
:1000780003139F13D8280514831603170814C330D5
:10008800831203139F0514298514831603178814F4
:10009800831203131F08C33904389F001429051558
:1000A800831603170815831203131F08C33908386A
:1000B8009F001429851583160317881583120313C7
:1000C8001F08C3390C389F00142985168316031797
:1000D8000816831203131F08C33910389F00142908
:1000E8000914831603178816831203131F08C339CC
:1000F80014389F00142989148316031708178312CC
:1001080003131F08C33918389F00831603130915F2
:10011800831603178817831203131F08C3391C3863
:100128009F00142906158316031709148312031355
:100138001F08C33920389F00142986158316031712
:100148008914831203131F08C33924389F00142904
:100158008614831603170915831203131F08C3395E
:1001680028389F0014290616831603178915831249
:1001780003131F08C3392C389F001429061483164B
:1001880003170916831203131F08C33930389F0059
:1001980014298616831603178916831203131F085A
:1001A800C33934389F0014297608F400F50175081E
:1001B800003A0319E02814297408003A03193F2863
:1001C800013A03194828033A03195328013A031935
:1001D8005E28073A03196928013A03197428033A73
:1001E80003197F28013A031989280F3A0319962819
:1001F800013A0319A128033A0319AC28013A031953
:10020800B728073A0319C228013A0319CD28142937
:100218007303031D102911291429831603139F172B
:10022800080083120313C101F41F1B291C29232969
:10023800F309F409F30A0319F40AC101C10AF61F04
:10024800262927293029F509F609F50A0319F60A96
:100258000130F7007708C106C201C30173087404AE
:100268000319372938296F29C001C00A46290130E6
:100278000310F30DF40DFF3E031D3C290130F70078
:100288007708C007F41F49294A293B290130031080
:10029800C20DC30DFF3E031D4B2974087602031DD2
:1002A800572973087502031C5A295B2962297308A8
:1002B800F5027408031CF603F60242140130031019
:1002C800F40CF30CFF3E031D63290130C002031D2B
:1002D8006E296F294A294108031973297429792934
:1002E800C209C309C20A0319C30A4308F400420831
:1002F800F30008000A128A1157220A128A1188305C
:100308000A128A1192220A128A11F30100300A1283
:100318008A1126200A128A11831203139F14780364
:10032800031D97299829A92985117908C900490821
:10033800C40001300A128A1119220A128A11831282
:10034800031305167A08870093297808031DAD2939
:10035800AE29BD2905127908C9004908C400003032
:100368000A128A1119220A128A1183120313851597
:10037800A6297908C900080AC3290310C90CFF3E39
:10038800031DC12949080319CA29CB29CD290515F7
:100398009329051193290A128A110C280B1CD529B7
:1003A800D629E82983120313061CDB29DC29E12955
:1003B8000130F00070088807E729861CE429E52940
:1003C800E729013088020B10831203130C1FED2953
:1003D800EE29F4291E08F0007008F9000C139F1488
:1003E8000B1DF729F829122A0130CC020B114C08F1
:1003F800031DFF29002A122A7803031D042A052A4F
:10040800072AF8010E2A7808031D0B2A0C2A0E2A3F
:10041800F801F80A0330F0007008CC0072088A006E
:10042800710E8300FE0E7E0E090083120313C800AE
:100438004808031D202A212A312A44080F39C500FB
:100448004508CB004B08C5004507203E84008313B0
:100458000008C6004608FA00562A4803031D352A34
:10046800362A562A1030F3000030F4004408C5003C
:10047800C6014508F5004608F6000A128A1115213A
:100488000A128A11730883120313C7004708CA00A7
:100498004A08C5004507203E840083130008C600AB
:1004A8004608FA0008008316031788018901831695
:1004B8000313850183120313850103308316031385
:1004C80086008312031386018316031387018312A0
:1004D800031387018316031388018312031388010A
:1004E8008316031389018312031389018B170B17D2
:1004F8008B150B1083160313161496148B160B11F9
:10050800811281110108F83901388100FF30F300A8
:10051800730883120313CC00F9010800F301F401F6
:10052800F501F6010130F5070318F60A0030F60761
:100538007608803AFF0080307F02031DA52AFF302D
:100548007502031CA82AA92A962A0130F307031862
:10055800F40A0030F4077408803AFF0080307F0204
:10056800031DB82AFF307302031CBB2ABC2A942A35
:100578000800C0340034F9340034A4340034B034F2
:1005880000349234003482340034B8340034F834FF
:100598000034903400348834003488340034833490
:1005A8000034C6340034A1340034863400348E3428
:1005B80000347E088A007F0882000A128A11DD2230
:1005C8000A128A118000840A04087D06031900347F
:0805D800FF0A0319FE0AE12AE3
:04400E00F420FF3F5C
:00000001FF
