:020000040000FA
:060000000A128A1110280B
:10000800FE00030EF5000A08F600831203137F08AA
:10001800F7000A128A1166290A128A111328831313
:100028004030FD000230FE001130FF002030840017
:100038000A128A1135220A128A11F801F901FA0105
:1000480083010A128A11F02983120313C3001F14B3
:100058001F083F3980389F00831603139F121F1211
:100068000C17831203130C134008031D3C283D286A
:100078002A29831603139F13F428831603130514E0
:10008800831603170814C330831203139F053229FC
:100098008316031385148316031788148312031316
:1000A8001F08C33904389F00322983160313051526
:1000B800831603170815831203131F08C33908385A
:1000C8009F00322983160313851583160317881595
:1000D800831203131F08C3390C389F003229831673
:1000E80003138516831603170816831203131F08B4
:1000F800C33910389F003229831603130914831655
:1001080003178816831203131F08C33914389F0076
:1001180032298316031389148316031708178312C9
:1001280003131F08C33918389F00831603130915D2
:10013800831603178817831203131F08C3391C3843
:100148009F00322983160313061583160317091413
:10015800831203131F08C33920389F0032298316DE
:1001680003138615831603178914831203131F08B4
:10017800C33924389F003229831603138614831643
:1001880003170915831203131F08C33928389F0062
:10019800322983160313061683160317891583124B
:1001A80003131F08C3392C389F0032298316031301
:1001B8000614831603170916831203131F08C3397D
:1001C80030389F00322983160313861683160317C7
:1001D8008916831203131F08C33934389F00322944
:1001E800831203134308C100C2014208003A0319ED
:1001F800FE2832294108003A03194128013A031917
:100208004C28033A03195928013A03196628073A72
:1002180003197328013A03198028033A03198D2812
:10022800013A031999280F3A0319A628013A031924
:10023800B328033A0319C028013A0319CD28073A0D
:100248000319DA28013A0319E72832294003031D64
:100258002E292F293229831603139F17080083128A
:100268000313C001C10183120313C201C30101308A
:1002780083120313C2070318C30A0030C3074308D5
:10028800803AFF0080307F02031D4C29FF30420274
:10029800031C4F2950293B29013083120313C0073F
:1002A8000318C10A0030C1074108803AFF008030B6
:1002B8007F02031D6129FF304002031C6429652960
:1002C800372908000B1C69296A297A29061C6D2917
:1002D8006E2973290130F400740888077929861C6F
:1002E800762977297929013088020B100C1F7D297E
:1002F8007E298F291E08F4007408FA007A088700FE
:100308000C13D0300A128A11C5210A128A118312DD
:1003180003130C139F147708FF0076088A00750EE4
:100328008300FE0E7E0E09008316031788018901DB
:100338008316031385018312031385010330831683
:1003480003138600831203138601831603138701A0
:10035800831203138701831603138801831203137F
:1003680088018316031389018312031389018B17EC
:100378000B178B150B108316031316149614FA011A
:100388000800F001F101F201F3010130F20703184E
:10039800F30A0030F3077308803AFF0080307F02C9
:1003A800031DD829FF307202031CDB29DC29C92967
:1003B8000130F0070318F10A0030F1077108803A9C
:1003C800FF0080307F02031DEB29FF307002031C01
:1003D800EE29EF29C72908000A128A1198210A1262
:1003E8008A1188300A128A1133210A128A1183125B
:1003F8000313C00100300A128A1128200A128A1138
:10040800831203139F1488300A128A1133210A12A7
:100418008A11072A0A128A1110283F340034073437
:1004280000344F340034663400346D3400347D3485
:100438000034473400347F3400346F340034773468
:1004480000347C340034393400345E340034793478
:10045800003471340034003400347E088A007F0888
:1004680082000A128A1131220A128A118000840A33
:1004780004087D0603190034FF0A0319FE0A352A09
:04400E00F420FF3F5C
:00000001FF
