:020000040000FA
:060000000A128A1110280B
:10000800FE00030EF5000A08F600831203137F08AA
:10001800F7000A128A118C280A128A111328F8018B
:1000280083010A128A11E9288316031788018901B6
:100038000330831603138600831203138601831685
:10004800031387018312031387018316031388019F
:100058008312031388018316031389018312031380
:1000680089018B170B178B150B10831603131614A6
:10007800961485010514831203138501831603174B
:100088000814831203131F14C3309F051F083F3938
:1000980080389F00831603139F139F121F120C179B
:1000A800831203130C13F801080083120313A00131
:1000B800A10183120313A201A301013083120313C8
:1000C800A2070318A30A0030A3072308803AFF00F9
:1000D80080307F02031D7228FF302202031C75281E
:1000E80076286128013083120313A0070318A10A98
:1000F8000030A1072108803AFF0080307F02031DED
:100108008728FF302002031C8A288B285D280800D6
:100118000B1C8F289028A028061C9328942899281F
:100128000130F400740888079F28861C9C289D28A5
:100138009F28013088020B100C1FA328A428B5287B
:100148001E08F4007408F800780887000C13D030F3
:100158000A128A11BE200A128A11831203130C1381
:100168009F147708FF0076088A00750E8300FE0E3C
:100178007E0E0900F001F101F201F3010130F207EE
:100188000318F30A0030F3077308803AFF00803041
:100198007F02031DD128FF307202031CD428D52802
:1001A800C2280130F0070318F10A0030F10771087E
:1001B800803AFF0080307F02031DE428FF30700280
:1001C800031CE728E828C02808000A128A1118200A
:1001D8000A128A1188300A128A1159200A128A11C1
:1001E800831203139F149F1483120313091088307A
:1001F8000A128A1159200A128A11F8280A128A1139
:020208001028BC
:04400E00F420FF3F5C
:00000001FF
