:020000040000FA
:060000000A128A110C280F
:10000800FE00030EF1000A08F2000A128A11D5292F
:100018000A128A110F2883134030FD000230FE00B7
:100028008230FF00203084000A128A11A6220A12A8
:100038008A11C701C801F801F901FA0183010A12FE
:100048008A117E29F600831203131F141F083F39F3
:1000580080389F00831603139F121F120C178312F8
:1000680003130C137308031D3A283B280C29831625
:1000780003139F13D8280514831603170814C330D5
:10008800831203139F0514298514831603178814F4
:10009800831203131F08C33904389F001429051558
:1000A800831603170815831203131F08C33908386A
:1000B8009F001429851583160317881583120313C7
:1000C8001F08C3390C389F00142985168316031797
:1000D8000816831203131F08C33910389F00142908
:1000E8000914831603178816831203131F08C339CC
:1000F80014389F00142989148316031708178312CC
:1001080003131F08C33918389F00831603130915F2
:10011800831603178817831203131F08C3391C3863
:100128009F00142906158316031709148312031355
:100138001F08C33920389F00142986158316031712
:100148008914831203131F08C33924389F00142904
:100158008614831603170915831203131F08C3395E
:1001680028389F0014290616831603178915831249
:1001780003131F08C3392C389F001429061483164B
:1001880003170916831203131F08C33930389F0059
:1001980014298616831603178916831203131F085A
:1001A800C33934389F0014297608F400F50175081E
:1001B800003A0319E02814297408003A03193F2863
:1001C800013A03194828033A03195328013A031935
:1001D8005E28073A03196928013A03197428033A73
:1001E80003197F28013A031989280F3A0319962819
:1001F800013A0319A128033A0319AC28013A031953
:10020800B728073A0319C228013A0319CD28142937
:100218007303031D102911291429831603139F172B
:10022800080083120313C101F41F1B291C29232969
:10023800F309F409F30A0319F40AC101C10AF61F04
:10024800262927293029F509F609F50A0319F60A96
:100258000130F7007708C106C201C30173087404AE
:100268000319372938296F29C001C00A46290130E6
:100278000310F30DF40DFF3E031D3C290130F70078
:100288007708C007F41F49294A293B290130031080
:10029800C20DC30DFF3E031D4B2974087602031DD2
:1002A800572973087502031C5A295B2962297308A8
:1002B800F5027408031CF603F60242140130031019
:1002C800F40CF30CFF3E031D63290130C002031D2B
:1002D8006E296F294A294108031973297429792934
:1002E800C209C309C20A0319C30A4308F400420831
:1002F800F30008000A128A111C220A128A11883097
:100308000A128A1157220A128A11F30100300A12BE
:100318008A1126200A128A11831203139F14780364
:10032800031D97299829BB298312031385111030BF
:10033800F3000030F4007A08C400C5014408F50051
:100348004508F6000A128A1115210A128A11730843
:1003580083120313C6004608C8007908C40044077E
:10036800203E840083130008870005169329780827
:10037800031DBF29C02993298312031305127A0884
:100388000F39C4004408F9007908C4004407203E26
:100398008400831300088700851593290A128A119F
:1003A8000C280B1CD829D929EB2983120313061C06
:1003B800DE29DF29E4290130F00070088807EA29DE
:1003C800861CE729E829EA29013088020B108312E4
:1003D80003130C1FF029F129F7291E08F0007008F3
:1003E800FA000C139F140B1DFA29FB29152A01305A
:1003F800C9020B114908031D022A032A152A78038A
:10040800031D072A082A0A2AF801112A7808031D59
:100418000E2A0F2A112AF801F80A0330F000700892
:10042800C90072088A00710E8300FE0E7E0E090054
:100438008316031788018901831603138501831224
:1004480003138501033083160313860083120313F5
:10045800860183160313870183120313870183160A
:100468000313880183120313880183160313890178
:100478008312031389018B170B178B150B10831627
:100488000313161496148B160B118112811101088F
:10049800F83901388100FF30F30073088312031321
:1004A800C900FA010800F301F401F501F601013071
:1004B800F5070318F60A0030F6077608803AFF00B9
:1004C80080307F02031D6A2AFF307502031C6D2AE3
:1004D8006E2A5B2A0130F3070318F40A0030F40788
:1004E8007408803AFF0080307F02031D7D2AFF30A8
:1004F8007302031C802A812A592A0800C034003458
:10050800F9340034A4340034B03400349234003464
:1005180082340034B8340034C034003490340034A9
:10052800883400348834003483340034C6340034CA
:10053800A1340034863400348E3400347E088A00B6
:100548007F0882000A128A11A2220A128A118000E8
:10055800840A04087D0603190034FF0A0319FE0AF9
:02056800A62AC1
:04400E00F420FF3F5C
:00000001FF
