:020000040000FA
:060000000A128A1110280B
:10000800FE00030EF5000A08F600831203137F08AA
:10001800F7000A128A115A280A128A111328F801BD
:1000280083010A128A11EC2801308316031789000C
:100038000330831603138600831203138601831685
:10004800031387018312031387018316031388019F
:100058008312031388018316031389018312031380
:1000680089018B170B178B150B10831603131614A6
:10007800961401308500831203138501013083161D
:1000880003178800831203131F14C3309F051F082A
:100098003F3940389F00831603139F139F121F1286
:1000A8000C17831203130C13F80108000B1C5D28AE
:1000B8005E286E28061C6128622867280130F40033
:1000C800740888076D28861C6A286B286D280130FB
:1000D80088020B100C1F7128722885289F1009149C
:1000E8001E08F4007408F800780887001F142030F0
:1000F8000A128A11C1200A128A11831203139F144B
:100108000C137708FF0076088A00750E8300FE0E30
:100118007E0E090083120313A001A10183120313A9
:10012800A201A301013083120313A2070318A30A33
:100138000030A3072308803AFF0080307F02031DA8
:10014800A728FF302202031CAA28AB2896280130D2
:1001580083120313A0070318A10A0030A10721087E
:10016800803AFF0080307F02031DBC28FF30200248
:10017800031CBF28C02892280800F001F101F201F1
:10018800F3010130F2070318F30A0030F30773088C
:10019800803AFF0080307F02031DD428FF307202AE
:1001A800031CD728D828C5280130F0070318F10AFE
:1001B8000030F1077108803AFF0080307F02031D8C
:1001C800E728FF307002031CEA28EB28C328080040
:1001D8000A128A1118200A128A1188300A128A1102
:1001E8008E200A128A1188300A128A118E200A1269
:0A01F8008A11F7280A128A11102854
:04400E00F420FF3F5C
:00000001FF
